{
  "_format": "hh-sol-artifact-1",
  "contractName": "MallSolar",
  "sourceName": "contracts/MallSolar.sol",
  "abi": [
    {
      "inputs": [],
      "stateMutability": "nonpayable",
      "type": "constructor"
    },
    {
      "anonymous": false,
      "inputs": [
        {
          "indexed": false,
          "internalType": "uint256",
          "name": "id",
          "type": "uint256"
        },
        {
          "indexed": false,
          "internalType": "address",
          "name": "producer",
          "type": "address"
        }
      ],
      "name": "AssetRegistered",
      "type": "event"
    },
    {
      "inputs": [
        {
          "internalType": "uint256",
          "name": "",
          "type": "uint256"
        }
      ],
      "name": "assets",
      "outputs": [
        {
          "internalType": "uint256",
          "name": "id",
          "type": "uint256"
        },
        {
          "internalType": "address",
          "name": "producer",
          "type": "address"
        },
        {
          "internalType": "string",
          "name": "location",
          "type": "string"
        },
        {
          "internalType": "uint256",
          "name": "energyAmount",
          "type": "uint256"
        }
      ],
      "stateMutability": "view",
      "type": "function"
    },
    {
      "inputs": [],
      "name": "nextAssetId",
      "outputs": [
        {
          "internalType": "uint256",
          "name": "",
          "type": "uint256"
        }
      ],
      "stateMutability": "view",
      "type": "function"
    },
    {
      "inputs": [],
      "name": "owner",
      "outputs": [
        {
          "internalType": "address",
          "name": "",
          "type": "address"
        }
      ],
      "stateMutability": "view",
      "type": "function"
    },
    {
      "inputs": [
        {
          "internalType": "string",
          "name": "location",
          "type": "string"
        },
        {
          "internalType": "uint256",
          "name": "energyAmount",
          "type": "uint256"
        }
      ],
      "name": "registerAsset",
      "outputs": [],
      "stateMutability": "nonpayable",
      "type": "function"
    }
  ],
  "bytecode": "0x6080604052348015600f57600080fd5b50336000806101000a81548173ffffffffffffffffffffffffffffffffffffffff021916908373ffffffffffffffffffffffffffffffffffffffff160217905550610a158061005f6000396000f3fe608060405234801561001057600080fd5b506004361061004c5760003560e01c80638da5cb5b146100515780638ed913181461006f578063cf35bdd01461008d578063f65db150146100c0575b600080fd5b6100596100dc565b6040516100669190610338565b60405180910390f35b610077610100565b604051610084919061036c565b60405180910390f35b6100a760048036038101906100a291906103c7565b610106565b6040516100b79493929190610484565b60405180910390f35b6100da60048036038101906100d59190610605565b6101de565b005b60008054906101000a900473ffffffffffffffffffffffffffffffffffffffff1681565b60015481565b60026020528060005260406000206000915090508060000154908060010160009054906101000a900473ffffffffffffffffffffffffffffffffffffffff169080600201805461015590610690565b80601f016020809104026020016040519081016040528092919081815260200182805461018190610690565b80156101ce5780601f106101a3576101008083540402835291602001916101ce565b820191906000526020600020905b8154815290600101906020018083116101b157829003601f168201915b5050505050908060030154905084565b604051806080016040528060015481526020013373ffffffffffffffffffffffffffffffffffffffff168152602001838152602001828152506002600060015481526020019081526020016000206000820151816000015560208201518160010160006101000a81548173ffffffffffffffffffffffffffffffffffffffff021916908373ffffffffffffffffffffffffffffffffffffffff1602179055506040820151816002019081610292919061086d565b50606082015181600301559050507f85819f62de3f36778ef25274607ec7071cf41151e6e04a29971d86f30e8bbf91600154336040516102d392919061093f565b60405180910390a1600160008154809291906102ee90610997565b91905055505050565b600073ffffffffffffffffffffffffffffffffffffffff82169050919050565b6000610322826102f7565b9050919050565b61033281610317565b82525050565b600060208201905061034d6000830184610329565b92915050565b6000819050919050565b61036681610353565b82525050565b6000602082019050610381600083018461035d565b92915050565b6000604051905090565b600080fd5b600080fd5b6103a481610353565b81146103af57600080fd5b50565b6000813590506103c18161039b565b92915050565b6000602082840312156103dd576103dc610391565b5b60006103eb848285016103b2565b91505092915050565b600081519050919050565b600082825260208201905092915050565b60005b8381101561042e578082015181840152602081019050610413565b60008484015250505050565b6000601f19601f8301169050919050565b6000610456826103f4565b61046081856103ff565b9350610470818560208601610410565b6104798161043a565b840191505092915050565b6000608082019050610499600083018761035d565b6104a66020830186610329565b81810360408301526104b8818561044b565b90506104c7606083018461035d565b95945050505050565b600080fd5b600080fd5b7f4e487b7100000000000000000000000000000000000000000000000000000000600052604160045260246000fd5b6105128261043a565b810181811067ffffffffffffffff82111715610531576105306104da565b5b80604052505050565b6000610544610387565b90506105508282610509565b919050565b600067ffffffffffffffff8211156105705761056f6104da565b5b6105798261043a565b9050602081019050919050565b82818337600083830152505050565b60006105a86105a384610555565b61053a565b9050828152602081018484840111156105c4576105c36104d5565b5b6105cf848285610586565b509392505050565b600082601f8301126105ec576105eb6104d0565b5b81356105fc848260208601610595565b91505092915050565b6000806040838503121561061c5761061b610391565b5b600083013567ffffffffffffffff81111561063a57610639610396565b5b610646858286016105d7565b9250506020610657858286016103b2565b9150509250929050565b7f4e487b7100000000000000000000000000000000000000000000000000000000600052602260045260246000fd5b600060028204905060018216806106a857607f821691505b6020821081036106bb576106ba610661565b5b50919050565b60008190508160005260206000209050919050565b60006020601f8301049050919050565b600082821b905092915050565b6000600883026107237fffffffffffffffffffffffffffffffffffffffffffffffffffffffffffffffff826106e6565b61072d86836106e6565b95508019841693508086168417925050509392505050565b6000819050919050565b600061076a61076561076084610353565b610745565b610353565b9050919050565b6000819050919050565b6107848361074f565b61079861079082610771565b8484546106f3565b825550505050565b600090565b6107ad6107a0565b6107b881848461077b565b505050565b5b818110156107dc576107d16000826107a5565b6001810190506107be565b5050565b601f821115610821576107f2816106c1565b6107fb846106d6565b8101602085101561080a578190505b61081e610816856106d6565b8301826107bd565b50505b505050565b600082821c905092915050565b600061084460001984600802610826565b1980831691505092915050565b600061085d8383610833565b9150826002028217905092915050565b610876826103f4565b67ffffffffffffffff81111561088f5761088e6104da565b5b6108998254610690565b6108a48282856107e0565b600060209050601f8311600181146108d757600084156108c5578287015190505b6108cf8582610851565b865550610937565b601f1984166108e5866106c1565b60005b8281101561090d578489015182556001820191506020850194506020810190506108e8565b8683101561092a5784890151610926601f891682610833565b8355505b6001600288020188555050505b505050505050565b6000604082019050610954600083018561035d565b6109616020830184610329565b9392505050565b7f4e487b7100000000000000000000000000000000000000000000000000000000600052601160045260246000fd5b60006109a282610353565b91507fffffffffffffffffffffffffffffffffffffffffffffffffffffffffffffffff82036109d4576109d3610968565b5b60018201905091905056fea26469706673582212207c76858341c90c405f91564a133dba093f7af83c6f9d8d1a5f516776f739677b64736f6c634300081c0033",
  "linkReferences": {},
  "deployedLinkReferences": {}
}